:030000000204F502
:0C04F500787FE4F6D8FD75813602053CE6
:040B010075BB30226E
:100AA600C2A4C2A3C2A5D2A3120AD8C2A6E4F580E4
:020AB60080F0CE
:0B0AE7000000000000000000DFF6220D
:10000300C2AFC2947F3C120AE7D2947F07120AE779
:0C001300A29492043094FDD2AFA204B37A
:01001F0022BE
:10060B007F551206501203ADFF12065090000112D7
:10061B0003C6FF1206509000021203C6FF120650CB
:10062B009000031203C6FF1206509000041203C67B
:10063B00FF1206509000051203C6FF1206509000E1
:05064B00061203C6FFCA
:02065000AE07F3
:10065200C2AF7D01ED60215E600DC2940000D294B4
:100662007F08120AE78009C2947F08120AE7D2942F
:0A0672000000ED25E0FD80DCD2AFB2
:01067C00225B
:1008EE00E4FEC2AF7D01ED601BC2940000D2947F86
:1008FE0001120AE730940242067F05120AE7ED253F
:08090E00E0FD80E2D2AFAF066C
:0109160022BE
:1009AA00120003501B1203AD70047FCC800A12069A
:1009BA000B9000071203C6FF1206507F441206501E
:0109CA00220A
:1007390012000350481203AD70047FCC800A1206E0
:100749000B9000071203C6FF1206507FBE12065017
:100759001208EEAC071208EEAB07EBFAECFB7F0FC1
:10076900120AE7EA53020730E70BC3E49BF532E4C8
:0D0779009AF53180048A318B32AE31AF32F7
:010786002250
:0F0AD800C2A400000000D2A400000000C2A422AB
:100A1B00C2A47E80EE600FC2A35F24FF92A5D2A377
:080A2B00EEC313FE80EEC2A32E
:010A330022A0
:080AF2007F0B7EBEDEFEDFFC7F
:010AFA0022D9
:1009CB007E01EE60135F6004D2B58002C2B5D2B473
:0A09DB00C2B4EE25E0FE80EAD2B5BA
:0109E50022EF
:100A3400E4FFD2B57E01EE600F30B5024207D2B4B6
:080A4400C2B4EE25E0FE80EED5
:010A4C002287
:100A7C00C2AFD2B6EF25E04481FF1209CB120A3483
:040A8C00C2B6D2AF6D
:010A90002243
:100A6500C2AFD2B6EF25E04480FF1209CBAF051225
:070A750009CBC2B6D2AF228B
:10098800C2AFD2B67FBE1209CBE4FD1203ADFF128F
:1009980009CB740129F9E43AFA0DBD08EEC2B6D2C2
:0109A800AF9F
:0109A900222B
:10089900C2AFD2B67FBF1209CBE4FD120A34EF1200
:1008A90003F3740129F9E43AFAD2AF120AF2C2AF9A
:0A08B9000DBD08E7C2B5C2B6D2AF0C
:0108C3002212
:100AB800C2B6C2B4D2B5E4FD7F07120A650209883E
:1009E600C29000000000D29100000000D2900000EA
:0B09F6000000C29100000000C290222F
:100A9100C29000000000C29100000000D29000004E
:050AA1000000D29122CB
:100805007E80E4FDEF5E6004D2918002C29100001B
:100815000000D290EEC313FEC2900DBD08E60000A5
:100825000000D29100000000D29000000000A291CB
:070835009205C290A205B379
:01083C002299
:1007CB007F80E4FEC290D291FD00000000D2900029
:1007DB00000000309103EF4206EFC313FFC2900DF0
:1007EB00BD08E600000000A206929100000000D2B6
:0907FB009000000000C290AF065E
:0108040022D1
:100AC800313233263435362537383928301B0D274F
:10058100602000A003E803E803E803E803E803E8C8
:1005910003E803E803E803E803E803E803E803E802
:1005A10003E803E8602000C0000000000000000034
:1005B100000000000000000000000000000000003A
:1005C1000000000000000000500090FFFFFFFFFF4F
:1005D100FFFFFFFFFFFFFFFFFFFFFF500080010153
:1005E10001010101010101010101010101011009E3
:1005F100FFFFFFFFFFFFFFFFFFFFFFFFFFFFFFFF0A
:03060100010800ED
:10020800E4F533E4F534E53325E025E02490F58280
:10021800E43400F583E5822534F582E43583F583FB
:10022800E0FFF470030202CFEF703EE53325E025CE
:10023800E02490F582E43400F583E5822534F582E4
:10024800E43583F58374FFF0E53325E025E024C821
:10025800F582E4340AF583E5822534F582E43583B2
:10026800F583E493FFE4FD805BE53325E025E02496
:1002780090F582E43400F583E5822534F582E4358F
:1002880083F583E06401703FE53325E025E02490A1
:10029800F582E43400F583E5822534F582E435837C
:1002A800F58374FFF0E53325E025E024C8F582E402
:1002B800340AF583E5822534F582E43583F583E451
:1002C80093FF7D011200000534E534C39404500304
:1002D80002020E0533E533C39404500302020BE413
:1002E800F533E4F534E53375F008A424C0F582E469
:1002F8003400F58375F002E53412041BE0FEA3E038
:10030800FFC394E8EE94034065E53375F008A42430
:10031800A0F582E43400F58375F002E53412041B7D
:10032800E0FCA3E0FDC3EF9DEE9C4060E53375F073
:1003380008A424A0F582E43400F58375F002E534BE
:1003480012041BE475F0C8120405E53325E025E026
:1003580024C8F582E4340AF583E5822534F582E47D
:100368003583F583E493FF7D02120000801EE53398
:1003780075F008A424A0F582E43400F58375F00232
:10038800E53412041B7403F0A374E8F00534E53473
:10039800C3940450030202ED0533E533C3940450BB
:0403A800030202EA60
:0103AC00222E
:020026008F3514
:10002800E4F536E50825E025E02409F8E625E0FFB3
:10003800A2A4E4334FFFE50825E025E02409F8A64B
:1000480007E50825E025E0240AF8E625E0FFA2A553
:10005800E4334FFFE50825E025E0240AF8A607E584
:100068000825E025E0240BF8E625E0FFA2A6E43306
:100078004FFFE50825E025E0240BF8A607E508254D
:10008800E025E0240CF8E625E0FFA2A7E4334FFFC3
:10009800E50825E025E0240CF8A607E4F536E50890
:1000A80025E025E024092536F8E6540FFF640F7093
:1000B80075E50825E025E02480F582E43400F58321
:1000C800E5822536F582E43583F583E07038E50866
:1000D80025E025E02490F582E43400F583E58225C7
:1000E80036F582E43583F5837401F0E50875F00888
:1000F800A424C0F582E43400F58375F002E53612D5
:10010800041BE4F0A3F0E50825E025E02480F5824F
:10011800E43400F583E5822536F582E43583F583FA
:100128007401F00201CEEF60030201CEE50825E07C
:1001380025E02480F582E43400F583E5822536F550
:1001480082E43583F583E064017039E50825E0250C
:10015800E02490F582E43400F583E5822536F582C3
:10016800E43583F583E4F0E50875F008A424C0F5C8
:1001780082E43400F58375F002E53612041BE4F0DE
:10018800A3F08026E53575F004A4FFAEF0E5087508
:10019800F008A424C0F582E43400F58375F002E584
:1001A8003612041BEE8FF0120405E50825E025E061
:1001B8002480F582E43400F583E5822536F582E46F
:1001C8003583F583E4F00536E53664046003020000
:1001D800A60508E508C394044003E4F508E50814F7
:1001E800600F14601114601324037013D2A0C2A30B
:0F01F80022D2A3C2A222D2A2C2A122D2A1C2A00D
:0102070022D4
:06060400012A000128009C
:10091700AB07AA06E4F9F87F807E70FDFC12078713
:10092700EFF404F58DF58BD2AFD2AC53890F438921
:0709370020759850D28E22BA
:100A4D00ED60141D1203ADF599740129F9E43AFA1C
:080A5D003003FDC20380E92211
:10093E00E52AC39D5002AD2AE4FFEFC39D50127409
:10094E00002FF8E21203F3740129F9E43AFA0F804A
:06095E00E9E4F52AAF05F3
:010964002270
:100A0100300216C2027BFE7A0079407D4012093E17
:090A1100AD077A007940120000E3
:010A1A0022B9
:10096500EF2528F52830001AE529652A6006852A2D
:1009750029E4F528E528D3941E4007E4F528D2029A
:02098500C200AE
:01098700224D
:030023000208C40C
:1008C400C0E0C0D075D000C000309904C299D203F2
:1008D400309810C298D2017400252AF8E599F2D212
:0A08E40000052AD000D0D0D0E03289
:04083D008F2B8D2C44
:100841001209E6E52C25E044A0FF120805AF2B12A2
:1008510008051209E6E52C25E044A1FF120805D29E
:0B086100061207CB8F2D120A91AF2D5D
:01086C002269
:10067D008F198D1A8B1B8A1C891D1209E6E51E2503
:10068D00E044A0FF120805AF191208051209E6E5AE
:10069D001E25E044A1FF120805E51AD39400401E63
:1006AD00C2061207CBAB1BAA1CA91DEF1203F374D4
:1006BD0001251DF51DE4351CF51C151A80DBD20630
:1006CD001207CBAB1BAA1CA91DEF1203F3020A9153
:06086D008F2E8D2F8B3051
:100873001209E6E53025E044A0FF1208059207308F
:1008830007028005120A9180E7AF2E120805AF2FE9
:06089300120805020A91A3
:0806DD008F228B238A2489255A
:1006E500E526D39400404C1209E6E52725E044A011
:1006F500FF12080592083008028005120A9180E76A
:10070500AF22120805E526D394004022AB23AA2484
:10071500A9251203ADFF120805152605227401252A
:1007250025F525E43524F524E522540770D7120A6A
:030735009180AD03
:01073800229E
:060AFB00EF4430F5C122BA
:040B050043C11022B6
:040B090053C1DF22D3
:10050100020AA6E493A3F8E493A34003F68001F260
:1005110008DFF48029E493A3F85407240CC8C333FB
:10052100C4540F4420C8834004F456800146F6DFCA
:10053100E4800B0102040810204080900581E47ED4
:10054100019360BCA3FF543F30E509541FFEE493BF
:10055100A360010ECF54C025E060A840B8E493A386
:10056100FAE493A3F8E493A3C8C582C8CAC583CAB1
:10057100F0A3C8C582C8CAC583CADFE9DEE780BE69
:01060A0000EF
:1003AD00BB010689828A83E0225002E722BBFE024E
:0903BD00E32289828A83E4932281
:1003C600BB010CE58229F582E5833AF583E02250EC
:1003D60006E92582F8E622BBFE06E92582F8E22236
:0D03E600E58229F582E5833AF583E4932250
:1003F300BB010689828A83F0225002F722BBFE01E9
:02040300F322E2
:10040500C5F0F8A3E028F0C5F0F8E5821582700282
:060415001583E038F0221F
:10078700C2D5E830E70FB2D5E4C39BFBE49AFAE49D
:1007970099F9E498F8EC30E717B2D51207BD1204BF
:1007A70063E4C39BFBE49AFAE499F9E498F88003BD
:1007B70012046330D50DE4C39FFFE49EFEE49DFD64
:0407C700E49CFC2290
:0C041B00A42582F582E5F03583F58322EC
:1004270075F008758200EF2FFFEE33FECD33CDCC8C
:1004370033CCC58233C5829BED9AEC99E58298400F
:100447000CF582EE9BFEED9AFDEC99FC0FD5F0D6EC
:10045700E4CEFBE4CDFAE4CCF9A88222B800C1B916
:100467000059BA002DEC8BF084CFCECDFCE5F0CB54
:10047700F97818EF2FFFEE33FEED33FDEC33FCEB8D
:1004870033FB10D703994004EB99FB0FD8E5E4F948
:10049700FA227818EF2FFFEE33FEED33FDEC33FC35
:1004A700C933C910D7059BE99A4007EC9BFCE99A29
:1004B700F90FD8E0E4C9FAE4CCFB2275F010EF2F6E
:1004C700FFEE33FEED33FDCC33CCC833C810D7076E
:1004D7009BEC9AE899400AED9BFDEC9AFCE899F8A9
:0E04E7000FD5F0DAE4CDFBE4CCFAE4C8F9223C
:00000001FF
